{
  "_format": "hh-sol-artifact-1",
  "contractName": "YourExperienceNFT",
  "sourceName": "contracts/YourExperienceNFT.sol",
  "abi": [
    {
      "inputs": [],
      "stateMutability": "nonpayable",
      "type": "constructor"
    },
    {
      "anonymous": false,
      "inputs": [
        {
          "indexed": true,
          "internalType": "address",
          "name": "owner",
          "type": "address"
        },
        {
          "indexed": true,
          "internalType": "address",
          "name": "approved",
          "type": "address"
        },
        {
          "indexed": true,
          "internalType": "uint256",
          "name": "tokenId",
          "type": "uint256"
        }
      ],
      "name": "Approval",
      "type": "event"
    },
    {
      "anonymous": false,
      "inputs": [
        {
          "indexed": true,
          "internalType": "address",
          "name": "owner",
          "type": "address"
        },
        {
          "indexed": true,
          "internalType": "address",
          "name": "operator",
          "type": "address"
        },
        {
          "indexed": false,
          "internalType": "bool",
          "name": "approved",
          "type": "bool"
        }
      ],
      "name": "ApprovalForAll",
      "type": "event"
    },
    {
      "anonymous": false,
      "inputs": [
        {
          "indexed": true,
          "internalType": "address",
          "name": "previousOwner",
          "type": "address"
        },
        {
          "indexed": true,
          "internalType": "address",
          "name": "newOwner",
          "type": "address"
        }
      ],
      "name": "OwnershipTransferred",
      "type": "event"
    },
    {
      "anonymous": false,
      "inputs": [
        {
          "indexed": true,
          "internalType": "address",
          "name": "from",
          "type": "address"
        },
        {
          "indexed": true,
          "internalType": "address",
          "name": "to",
          "type": "address"
        },
        {
          "indexed": true,
          "internalType": "uint256",
          "name": "tokenId",
          "type": "uint256"
        }
      ],
      "name": "Transfer",
      "type": "event"
    },
    {
      "inputs": [
        {
          "internalType": "address",
          "name": "to",
          "type": "address"
        },
        {
          "internalType": "uint256",
          "name": "tokenId",
          "type": "uint256"
        }
      ],
      "name": "approve",
      "outputs": [],
      "stateMutability": "nonpayable",
      "type": "function"
    },
    {
      "inputs": [
        {
          "internalType": "address",
          "name": "owner",
          "type": "address"
        }
      ],
      "name": "balanceOf",
      "outputs": [
        {
          "internalType": "uint256",
          "name": "",
          "type": "uint256"
        }
      ],
      "stateMutability": "view",
      "type": "function"
    },
    {
      "inputs": [
        {
          "internalType": "uint256",
          "name": "tokenId",
          "type": "uint256"
        }
      ],
      "name": "getApproved",
      "outputs": [
        {
          "internalType": "address",
          "name": "",
          "type": "address"
        }
      ],
      "stateMutability": "view",
      "type": "function"
    },
    {
      "inputs": [
        {
          "internalType": "address",
          "name": "owner",
          "type": "address"
        },
        {
          "internalType": "address",
          "name": "operator",
          "type": "address"
        }
      ],
      "name": "isApprovedForAll",
      "outputs": [
        {
          "internalType": "bool",
          "name": "",
          "type": "bool"
        }
      ],
      "stateMutability": "view",
      "type": "function"
    },
    {
      "inputs": [
        {
          "internalType": "string",
          "name": "_name",
          "type": "string"
        },
        {
          "internalType": "string",
          "name": "_description",
          "type": "string"
        },
        {
          "internalType": "string",
          "name": "_image",
          "type": "string"
        }
      ],
      "name": "mintNFT",
      "outputs": [],
      "stateMutability": "nonpayable",
      "type": "function"
    },
    {
      "inputs": [],
      "name": "name",
      "outputs": [
        {
          "internalType": "string",
          "name": "",
          "type": "string"
        }
      ],
      "stateMutability": "view",
      "type": "function"
    },
    {
      "inputs": [],
      "name": "owner",
      "outputs": [
        {
          "internalType": "address",
          "name": "",
          "type": "address"
        }
      ],
      "stateMutability": "view",
      "type": "function"
    },
    {
      "inputs": [
        {
          "internalType": "uint256",
          "name": "tokenId",
          "type": "uint256"
        }
      ],
      "name": "ownerOf",
      "outputs": [
        {
          "internalType": "address",
          "name": "",
          "type": "address"
        }
      ],
      "stateMutability": "view",
      "type": "function"
    },
    {
      "inputs": [],
      "name": "renounceOwnership",
      "outputs": [],
      "stateMutability": "nonpayable",
      "type": "function"
    },
    {
      "inputs": [
        {
          "internalType": "address",
          "name": "from",
          "type": "address"
        },
        {
          "internalType": "address",
          "name": "to",
          "type": "address"
        },
        {
          "internalType": "uint256",
          "name": "tokenId",
          "type": "uint256"
        }
      ],
      "name": "safeTransferFrom",
      "outputs": [],
      "stateMutability": "nonpayable",
      "type": "function"
    },
    {
      "inputs": [
        {
          "internalType": "address",
          "name": "from",
          "type": "address"
        },
        {
          "internalType": "address",
          "name": "to",
          "type": "address"
        },
        {
          "internalType": "uint256",
          "name": "tokenId",
          "type": "uint256"
        },
        {
          "internalType": "bytes",
          "name": "_data",
          "type": "bytes"
        }
      ],
      "name": "safeTransferFrom",
      "outputs": [],
      "stateMutability": "nonpayable",
      "type": "function"
    },
    {
      "inputs": [
        {
          "internalType": "address",
          "name": "operator",
          "type": "address"
        },
        {
          "internalType": "bool",
          "name": "approved",
          "type": "bool"
        }
      ],
      "name": "setApprovalForAll",
      "outputs": [],
      "stateMutability": "nonpayable",
      "type": "function"
    },
    {
      "inputs": [
        {
          "internalType": "bytes4",
          "name": "interfaceId",
          "type": "bytes4"
        }
      ],
      "name": "supportsInterface",
      "outputs": [
        {
          "internalType": "bool",
          "name": "",
          "type": "bool"
        }
      ],
      "stateMutability": "view",
      "type": "function"
    },
    {
      "inputs": [],
      "name": "symbol",
      "outputs": [
        {
          "internalType": "string",
          "name": "",
          "type": "string"
        }
      ],
      "stateMutability": "view",
      "type": "function"
    },
    {
      "inputs": [
        {
          "internalType": "uint256",
          "name": "tokenId",
          "type": "uint256"
        }
      ],
      "name": "tokenURI",
      "outputs": [
        {
          "internalType": "string",
          "name": "",
          "type": "string"
        }
      ],
      "stateMutability": "view",
      "type": "function"
    },
    {
      "inputs": [
        {
          "internalType": "address",
          "name": "from",
          "type": "address"
        },
        {
          "internalType": "address",
          "name": "to",
          "type": "address"
        },
        {
          "internalType": "uint256",
          "name": "tokenId",
          "type": "uint256"
        }
      ],
      "name": "transferFrom",
      "outputs": [],
      "stateMutability": "nonpayable",
      "type": "function"
    },
    {
      "inputs": [
        {
          "internalType": "address",
          "name": "newOwner",
          "type": "address"
        }
      ],
      "name": "transferOwnership",
      "outputs": [],
      "stateMutability": "nonpayable",
      "type": "function"
    }
  ],
  "bytecode": "0x60806040523480156200001157600080fd5b506040518060400160405280601381526020017f596f757220457870657269656e6365204e4654000000000000000000000000008152506040518060400160405280600281526020017f5945000000000000000000000000000000000000000000000000000000000000815250816000908051906020019062000096929190620001a6565b508060019080519060200190620000af929190620001a6565b505050620000d2620000c6620000d860201b60201c565b620000e060201b60201c565b620002bb565b600033905090565b6000600760009054906101000a900473ffffffffffffffffffffffffffffffffffffffff16905081600760006101000a81548173ffffffffffffffffffffffffffffffffffffffff021916908373ffffffffffffffffffffffffffffffffffffffff1602179055508173ffffffffffffffffffffffffffffffffffffffff168173ffffffffffffffffffffffffffffffffffffffff167f8be0079c531659141344cd1fd0a4f28419497f9722a3daafe3b4186f6b6457e060405160405180910390a35050565b828054620001b49062000256565b90600052602060002090601f016020900481019282620001d8576000855562000224565b82601f10620001f357805160ff191683800117855562000224565b8280016001018555821562000224579182015b828111156200022357825182559160200191906001019062000206565b5b50905062000233919062000237565b5090565b5b808211156200025257600081600090555060010162000238565b5090565b600060028204905060018216806200026f57607f821691505b602082108114156200028657620002856200028c565b5b50919050565b7f4e487b7100000000000000000000000000000000000000000000000000000000600052602260045260246000fd5b61356a80620002cb6000396000f3fe608060405234801561001057600080fd5b506004361061010b5760003560e01c806370a08231116100a2578063a22cb46511610071578063a22cb465146102a4578063b88d4fde146102c0578063c87b56dd146102dc578063e985e9c51461030c578063f2fde38b1461033c5761010b565b806370a082311461022e578063715018a61461025e5780638da5cb5b1461026857806395d89b41146102865761010b565b80630c3b7b72116100de5780630c3b7b72146101aa57806323b872dd146101c657806342842e0e146101e25780636352211e146101fe5761010b565b806301ffc9a71461011057806306fdde0314610140578063081812fc1461015e578063095ea7b31461018e575b600080fd5b61012a6004803603810190610125919061213d565b610358565b6040516101379190612789565b60405180910390f35b61014861043a565b60405161015591906127a4565b60405180910390f35b61017860048036038101906101739190612226565b6104cc565b6040516101859190612722565b60405180910390f35b6101a860048036038101906101a39190612101565b610551565b005b6101c460048036038101906101bf919061218f565b610669565b005b6101e060048036038101906101db9190611ffb565b6106f3565b005b6101fc60048036038101906101f79190611ffb565b610753565b005b61021860048036038101906102139190612226565b610773565b6040516102259190612722565b60405180910390f35b61024860048036038101906102439190611f96565b610825565b6040516102559190612a06565b60405180910390f35b6102666108dd565b005b610270610965565b60405161027d9190612722565b60405180910390f35b61028e61098f565b60405161029b91906127a4565b60405180910390f35b6102be60048036038101906102b991906120c5565b610a21565b005b6102da60048036038101906102d5919061204a565b610a37565b005b6102f660048036038101906102f19190612226565b610a99565b60405161030391906127a4565b60405180910390f35b61032660048036038101906103219190611fbf565b610beb565b6040516103339190612789565b60405180910390f35b61035660048036038101906103519190611f96565b610c7f565b005b60007f80ac58cd000000000000000000000000000000000000000000000000000000007bffffffffffffffffffffffffffffffffffffffffffffffffffffffff1916827bffffffffffffffffffffffffffffffffffffffffffffffffffffffff1916148061042357507f5b5e139f000000000000000000000000000000000000000000000000000000007bffffffffffffffffffffffffffffffffffffffffffffffffffffffff1916827bffffffffffffffffffffffffffffffffffffffffffffffffffffffff1916145b80610433575061043282610d77565b5b9050919050565b60606000805461044990612cb6565b80601f016020809104026020016040519081016040528092919081815260200182805461047590612cb6565b80156104c25780601f10610497576101008083540402835291602001916104c2565b820191906000526020600020905b8154815290600101906020018083116104a557829003601f168201915b5050505050905090565b60006104d782610de1565b610516576040517f08c379a000000000000000000000000000000000000000000000000000000000815260040161050d90612966565b60405180910390fd5b6004600083815260200190815260200160002060009054906101000a900473ffffffffffffffffffffffffffffffffffffffff169050919050565b600061055c82610773565b90508073ffffffffffffffffffffffffffffffffffffffff168373ffffffffffffffffffffffffffffffffffffffff1614156105cd576040517f08c379a00000000000000000000000000000000000000000000000000000000081526004016105c4906129c6565b60405180910390fd5b8073ffffffffffffffffffffffffffffffffffffffff166105ec610e4d565b73ffffffffffffffffffffffffffffffffffffffff16148061061b575061061a81610615610e4d565b610beb565b5b61065a576040517f08c379a0000000000000000000000000000000000000000000000000000000008152600401610651906128a6565b60405180910390fd5b6106648383610e55565b505050565b60006106756008610f0e565b905060006106a785868686604051602001610693949392919061268b565b604051602081830303815290604052610f1c565b90506000816040516020016106bc9190612700565b60405160208183030381529060405290506106d733846110da565b6106e183826110f8565b6106eb600861116c565b505050505050565b6107046106fe610e4d565b82611182565b610743576040517f08c379a000000000000000000000000000000000000000000000000000000000815260040161073a906129e6565b60405180910390fd5b61074e838383611260565b505050565b61076e83838360405180602001604052806000815250610a37565b505050565b6000806002600084815260200190815260200160002060009054906101000a900473ffffffffffffffffffffffffffffffffffffffff169050600073ffffffffffffffffffffffffffffffffffffffff168173ffffffffffffffffffffffffffffffffffffffff16141561081c576040517f08c379a0000000000000000000000000000000000000000000000000000000008152600401610813906128e6565b60405180910390fd5b80915050919050565b60008073ffffffffffffffffffffffffffffffffffffffff168273ffffffffffffffffffffffffffffffffffffffff161415610896576040517f08c379a000000000000000000000000000000000000000000000000000000000815260040161088d906128c6565b60405180910390fd5b600360008373ffffffffffffffffffffffffffffffffffffffff1673ffffffffffffffffffffffffffffffffffffffff168152602001908152602001600020549050919050565b6108e5610e4d565b73ffffffffffffffffffffffffffffffffffffffff16610903610965565b73ffffffffffffffffffffffffffffffffffffffff1614610959576040517f08c379a000000000000000000000000000000000000000000000000000000000815260040161095090612986565b60405180910390fd5b61096360006114c7565b565b6000600760009054906101000a900473ffffffffffffffffffffffffffffffffffffffff16905090565b60606001805461099e90612cb6565b80601f01602080910402602001604051908101604052809291908181526020018280546109ca90612cb6565b8015610a175780601f106109ec57610100808354040283529160200191610a17565b820191906000526020600020905b8154815290600101906020018083116109fa57829003601f168201915b5050505050905090565b610a33610a2c610e4d565b838361158d565b5050565b610a48610a42610e4d565b83611182565b610a87576040517f08c379a0000000000000000000000000000000000000000000000000000000008152600401610a7e906129e6565b60405180910390fd5b610a93848484846116fa565b50505050565b6060610aa482610de1565b610ae3576040517f08c379a0000000000000000000000000000000000000000000000000000000008152600401610ada90612946565b60405180910390fd5b6000600660008481526020019081526020016000208054610b0390612cb6565b80601f0160208091040260200160405190810160405280929190818152602001828054610b2f90612cb6565b8015610b7c5780601f10610b5157610100808354040283529160200191610b7c565b820191906000526020600020905b815481529060010190602001808311610b5f57829003601f168201915b505050505090506000610b8d611756565b9050600081511415610ba3578192505050610be6565b600082511115610bd8578082604051602001610bc0929190612667565b60405160208183030381529060405292505050610be6565b610be18461176d565b925050505b919050565b6000600560008473ffffffffffffffffffffffffffffffffffffffff1673ffffffffffffffffffffffffffffffffffffffff16815260200190815260200160002060008373ffffffffffffffffffffffffffffffffffffffff1673ffffffffffffffffffffffffffffffffffffffff16815260200190815260200160002060009054906101000a900460ff16905092915050565b610c87610e4d565b73ffffffffffffffffffffffffffffffffffffffff16610ca5610965565b73ffffffffffffffffffffffffffffffffffffffff1614610cfb576040517f08c379a0000000000000000000000000000000000000000000000000000000008152600401610cf290612986565b60405180910390fd5b600073ffffffffffffffffffffffffffffffffffffffff168173ffffffffffffffffffffffffffffffffffffffff161415610d6b576040517f08c379a0000000000000000000000000000000000000000000000000000000008152600401610d62906127e6565b60405180910390fd5b610d74816114c7565b50565b60007f01ffc9a7000000000000000000000000000000000000000000000000000000007bffffffffffffffffffffffffffffffffffffffffffffffffffffffff1916827bffffffffffffffffffffffffffffffffffffffffffffffffffffffff1916149050919050565b60008073ffffffffffffffffffffffffffffffffffffffff166002600084815260200190815260200160002060009054906101000a900473ffffffffffffffffffffffffffffffffffffffff1673ffffffffffffffffffffffffffffffffffffffff1614159050919050565b600033905090565b816004600083815260200190815260200160002060006101000a81548173ffffffffffffffffffffffffffffffffffffffff021916908373ffffffffffffffffffffffffffffffffffffffff160217905550808273ffffffffffffffffffffffffffffffffffffffff16610ec883610773565b73ffffffffffffffffffffffffffffffffffffffff167f8c5be1e5ebec7d5bd14f71427d1e84f3dd0314c0f7b2291e5b200ac8c7c3b92560405160405180910390a45050565b600081600001549050919050565b60606000825190506000811415610f4557604051806020016040528060008152509150506110d5565b60006003600283610f569190612aeb565b610f609190612b41565b6004610f6c9190612b72565b90506000602082610f7d9190612aeb565b67ffffffffffffffff811115610fbc577f4e487b7100000000000000000000000000000000000000000000000000000000600052604160045260246000fd5b6040519080825280601f01601f191660200182016040528015610fee5781602001600182028036833780820191505090505b50905060006040518060600160405280604081526020016134f5604091399050600181016020830160005b868110156110925760038101905062ffffff818a015116603f8160121c168401518060081b905060ff603f83600c1c1686015116810190508060081b905060ff603f8360061c1686015116810190508060081b905060ff603f831686015116810190508060e01b90508084526004840193505050611019565b5060038606600181146110ac57600281146110bc576110c7565b613d3d60f01b60028303526110c7565b603d60f81b60018303525b508484525050819450505050505b919050565b6110f4828260405180602001604052806000815250611814565b5050565b61110182610de1565b611140576040517f08c379a000000000000000000000000000000000000000000000000000000000815260040161113790612906565b60405180910390fd5b80600660008481526020019081526020016000209080519060200190611167929190611dba565b505050565b6001816000016000828254019250508190555050565b600061118d82610de1565b6111cc576040517f08c379a00000000000000000000000000000000000000000000000000000000081526004016111c390612886565b60405180910390fd5b60006111d783610773565b90508073ffffffffffffffffffffffffffffffffffffffff168473ffffffffffffffffffffffffffffffffffffffff16148061121957506112188185610beb565b5b8061125757508373ffffffffffffffffffffffffffffffffffffffff1661123f846104cc565b73ffffffffffffffffffffffffffffffffffffffff16145b91505092915050565b8273ffffffffffffffffffffffffffffffffffffffff1661128082610773565b73ffffffffffffffffffffffffffffffffffffffff16146112d6576040517f08c379a00000000000000000000000000000000000000000000000000000000081526004016112cd90612806565b60405180910390fd5b600073ffffffffffffffffffffffffffffffffffffffff168273ffffffffffffffffffffffffffffffffffffffff161415611346576040517f08c379a000000000000000000000000000000000000000000000000000000000815260040161133d90612846565b60405180910390fd5b61135183838361186f565b61135c600082610e55565b6001600360008573ffffffffffffffffffffffffffffffffffffffff1673ffffffffffffffffffffffffffffffffffffffff16815260200190815260200160002060008282546113ac9190612bcc565b925050819055506001600360008473ffffffffffffffffffffffffffffffffffffffff1673ffffffffffffffffffffffffffffffffffffffff16815260200190815260200160002060008282546114039190612aeb565b92505081905550816002600083815260200190815260200160002060006101000a81548173ffffffffffffffffffffffffffffffffffffffff021916908373ffffffffffffffffffffffffffffffffffffffff160217905550808273ffffffffffffffffffffffffffffffffffffffff168473ffffffffffffffffffffffffffffffffffffffff167fddf252ad1be2c89b69c2b068fc378daa952ba7f163c4a11628f55a4df523b3ef60405160405180910390a46114c2838383611874565b505050565b6000600760009054906101000a900473ffffffffffffffffffffffffffffffffffffffff16905081600760006101000a81548173ffffffffffffffffffffffffffffffffffffffff021916908373ffffffffffffffffffffffffffffffffffffffff1602179055508173ffffffffffffffffffffffffffffffffffffffff168173ffffffffffffffffffffffffffffffffffffffff167f8be0079c531659141344cd1fd0a4f28419497f9722a3daafe3b4186f6b6457e060405160405180910390a35050565b8173ffffffffffffffffffffffffffffffffffffffff168373ffffffffffffffffffffffffffffffffffffffff1614156115fc576040517f08c379a00000000000000000000000000000000000000000000000000000000081526004016115f390612866565b60405180910390fd5b80600560008573ffffffffffffffffffffffffffffffffffffffff1673ffffffffffffffffffffffffffffffffffffffff16815260200190815260200160002060008473ffffffffffffffffffffffffffffffffffffffff1673ffffffffffffffffffffffffffffffffffffffff16815260200190815260200160002060006101000a81548160ff0219169083151502179055508173ffffffffffffffffffffffffffffffffffffffff168373ffffffffffffffffffffffffffffffffffffffff167f17307eab39ab6107e8899845ad3d59bd9653f200f220920489ca2b5937696c31836040516116ed9190612789565b60405180910390a3505050565b611705848484611260565b61171184848484611879565b611750576040517f08c379a0000000000000000000000000000000000000000000000000000000008152600401611747906127c6565b60405180910390fd5b50505050565b606060405180602001604052806000815250905090565b606061177882610de1565b6117b7576040517f08c379a00000000000000000000000000000000000000000000000000000000081526004016117ae906129a6565b60405180910390fd5b60006117c1611756565b905060008151116117e1576040518060200160405280600081525061180c565b806117eb84611a10565b6040516020016117fc929190612667565b6040516020818303038152906040525b915050919050565b61181e8383611bbd565b61182b6000848484611879565b61186a576040517f08c379a0000000000000000000000000000000000000000000000000000000008152600401611861906127c6565b60405180910390fd5b505050565b505050565b505050565b600061189a8473ffffffffffffffffffffffffffffffffffffffff16611d97565b15611a03578373ffffffffffffffffffffffffffffffffffffffff1663150b7a026118c3610e4d565b8786866040518563ffffffff1660e01b81526004016118e5949392919061273d565b602060405180830381600087803b1580156118ff57600080fd5b505af192505050801561193057506040513d601f19601f8201168201806040525081019061192d9190612166565b60015b6119b3573d8060008114611960576040519150601f19603f3d011682016040523d82523d6000602084013e611965565b606091505b506000815114156119ab576040517f08c379a00000000000000000000000000000000000000000000000000000000081526004016119a2906127c6565b60405180910390fd5b805181602001fd5b63150b7a0260e01b7bffffffffffffffffffffffffffffffffffffffffffffffffffffffff1916817bffffffffffffffffffffffffffffffffffffffffffffffffffffffff191614915050611a08565b600190505b949350505050565b60606000821415611a58576040518060400160405280600181526020017f30000000000000000000000000000000000000000000000000000000000000008152509050611bb8565b600082905060005b60008214611a8a578080611a7390612d19565b915050600a82611a839190612b41565b9150611a60565b60008167ffffffffffffffff811115611acc577f4e487b7100000000000000000000000000000000000000000000000000000000600052604160045260246000fd5b6040519080825280601f01601f191660200182016040528015611afe5781602001600182028036833780820191505090505b5090505b60008514611bb157600182611b179190612bcc565b9150600a85611b269190612d62565b6030611b329190612aeb565b60f81b818381518110611b6e577f4e487b7100000000000000000000000000000000000000000000000000000000600052603260045260246000fd5b60200101907effffffffffffffffffffffffffffffffffffffffffffffffffffffffffffff1916908160001a905350600a85611baa9190612b41565b9450611b02565b8093505050505b919050565b600073ffffffffffffffffffffffffffffffffffffffff168273ffffffffffffffffffffffffffffffffffffffff161415611c2d576040517f08c379a0000000000000000000000000000000000000000000000000000000008152600401611c2490612926565b60405180910390fd5b611c3681610de1565b15611c76576040517f08c379a0000000000000000000000000000000000000000000000000000000008152600401611c6d90612826565b60405180910390fd5b611c826000838361186f565b6001600360008473ffffffffffffffffffffffffffffffffffffffff1673ffffffffffffffffffffffffffffffffffffffff1681526020019081526020016000206000828254611cd29190612aeb565b92505081905550816002600083815260200190815260200160002060006101000a81548173ffffffffffffffffffffffffffffffffffffffff021916908373ffffffffffffffffffffffffffffffffffffffff160217905550808273ffffffffffffffffffffffffffffffffffffffff16600073ffffffffffffffffffffffffffffffffffffffff167fddf252ad1be2c89b69c2b068fc378daa952ba7f163c4a11628f55a4df523b3ef60405160405180910390a4611d9360008383611874565b5050565b6000808273ffffffffffffffffffffffffffffffffffffffff163b119050919050565b828054611dc690612cb6565b90600052602060002090601f016020900481019282611de85760008555611e2f565b82601f10611e0157805160ff1916838001178555611e2f565b82800160010185558215611e2f579182015b82811115611e2e578251825591602001919060010190611e13565b5b509050611e3c9190611e40565b5090565b5b80821115611e59576000816000905550600101611e41565b5090565b6000611e70611e6b84612a46565b612a21565b905082815260208101848484011115611e8857600080fd5b611e93848285612c74565b509392505050565b6000611eae611ea984612a77565b612a21565b905082815260208101848484011115611ec657600080fd5b611ed1848285612c74565b509392505050565b600081359050611ee881613498565b92915050565b600081359050611efd816134af565b92915050565b600081359050611f12816134c6565b92915050565b600081519050611f27816134c6565b92915050565b600082601f830112611f3e57600080fd5b8135611f4e848260208601611e5d565b91505092915050565b600082601f830112611f6857600080fd5b8135611f78848260208601611e9b565b91505092915050565b600081359050611f90816134dd565b92915050565b600060208284031215611fa857600080fd5b6000611fb684828501611ed9565b91505092915050565b60008060408385031215611fd257600080fd5b6000611fe085828601611ed9565b9250506020611ff185828601611ed9565b9150509250929050565b60008060006060848603121561201057600080fd5b600061201e86828701611ed9565b935050602061202f86828701611ed9565b925050604061204086828701611f81565b9150509250925092565b6000806000806080858703121561206057600080fd5b600061206e87828801611ed9565b945050602061207f87828801611ed9565b935050604061209087828801611f81565b925050606085013567ffffffffffffffff8111156120ad57600080fd5b6120b987828801611f2d565b91505092959194509250565b600080604083850312156120d857600080fd5b60006120e685828601611ed9565b92505060206120f785828601611eee565b9150509250929050565b6000806040838503121561211457600080fd5b600061212285828601611ed9565b925050602061213385828601611f81565b9150509250929050565b60006020828403121561214f57600080fd5b600061215d84828501611f03565b91505092915050565b60006020828403121561217857600080fd5b600061218684828501611f18565b91505092915050565b6000806000606084860312156121a457600080fd5b600084013567ffffffffffffffff8111156121be57600080fd5b6121ca86828701611f57565b935050602084013567ffffffffffffffff8111156121e757600080fd5b6121f386828701611f57565b925050604084013567ffffffffffffffff81111561221057600080fd5b61221c86828701611f57565b9150509250925092565b60006020828403121561223857600080fd5b600061224684828501611f81565b91505092915050565b61225881612c00565b82525050565b61226781612c12565b82525050565b600061227882612aa8565b6122828185612abe565b9350612292818560208601612c83565b61229b81612e4f565b840191505092915050565b60006122b182612ab3565b6122bb8185612acf565b93506122cb818560208601612c83565b6122d481612e4f565b840191505092915050565b60006122ea82612ab3565b6122f48185612ae0565b9350612304818560208601612c83565b80840191505092915050565b600061231d603283612acf565b915061232882612e60565b604082019050919050565b6000612340602683612acf565b915061234b82612eaf565b604082019050919050565b6000612363602583612acf565b915061236e82612efe565b604082019050919050565b6000612386601c83612acf565b915061239182612f4d565b602082019050919050565b60006123a9602483612acf565b91506123b482612f76565b604082019050919050565b60006123cc601983612acf565b91506123d782612fc5565b602082019050919050565b60006123ef602c83612acf565b91506123fa82612fee565b604082019050919050565b6000612412603883612acf565b915061241d8261303d565b604082019050919050565b6000612435602a83612acf565b91506124408261308c565b604082019050919050565b6000612458602983612acf565b9150612463826130db565b604082019050919050565b600061247b602e83612acf565b91506124868261312a565b604082019050919050565b600061249e600283612ae0565b91506124a982613179565b600282019050919050565b60006124c1604283612ae0565b91506124cc826131a2565b604282019050919050565b60006124e4602083612acf565b91506124ef82613217565b602082019050919050565b6000612507600d83612ae0565b915061251282613240565b600d82019050919050565b600061252a603183612acf565b915061253582613269565b604082019050919050565b600061254d602c83612acf565b9150612558826132b8565b604082019050919050565b6000612570600d83612ae0565b915061257b82613307565b600d82019050919050565b6000612593602083612acf565b915061259e82613330565b602082019050919050565b60006125b6602f83612acf565b91506125c182613359565b604082019050919050565b60006125d9602183612acf565b91506125e4826133a8565b604082019050919050565b60006125fc600283612ae0565b9150612607826133f7565b600282019050919050565b600061261f601d83612ae0565b915061262a82613420565b601d82019050919050565b6000612642603183612acf565b915061264d82613449565b604082019050919050565b61266181612c6a565b82525050565b600061267382856122df565b915061267f82846122df565b91508190509392505050565b600061269682612563565b91506126a282876122df565b91506126ad826124b4565b91506126b982866122df565b91506126c4826125ef565b91506126d082856122df565b91506126db826124fa565b91506126e782846122df565b91506126f282612491565b915081905095945050505050565b600061270b82612612565b915061271782846122df565b915081905092915050565b6000602082019050612737600083018461224f565b92915050565b6000608082019050612752600083018761224f565b61275f602083018661224f565b61276c6040830185612658565b818103606083015261277e818461226d565b905095945050505050565b600060208201905061279e600083018461225e565b92915050565b600060208201905081810360008301526127be81846122a6565b905092915050565b600060208201905081810360008301526127df81612310565b9050919050565b600060208201905081810360008301526127ff81612333565b9050919050565b6000602082019050818103600083015261281f81612356565b9050919050565b6000602082019050818103600083015261283f81612379565b9050919050565b6000602082019050818103600083015261285f8161239c565b9050919050565b6000602082019050818103600083015261287f816123bf565b9050919050565b6000602082019050818103600083015261289f816123e2565b9050919050565b600060208201905081810360008301526128bf81612405565b9050919050565b600060208201905081810360008301526128df81612428565b9050919050565b600060208201905081810360008301526128ff8161244b565b9050919050565b6000602082019050818103600083015261291f8161246e565b9050919050565b6000602082019050818103600083015261293f816124d7565b9050919050565b6000602082019050818103600083015261295f8161251d565b9050919050565b6000602082019050818103600083015261297f81612540565b9050919050565b6000602082019050818103600083015261299f81612586565b9050919050565b600060208201905081810360008301526129bf816125a9565b9050919050565b600060208201905081810360008301526129df816125cc565b9050919050565b600060208201905081810360008301526129ff81612635565b9050919050565b6000602082019050612a1b6000830184612658565b92915050565b6000612a2b612a3c565b9050612a378282612ce8565b919050565b6000604051905090565b600067ffffffffffffffff821115612a6157612a60612e20565b5b612a6a82612e4f565b9050602081019050919050565b600067ffffffffffffffff821115612a9257612a91612e20565b5b612a9b82612e4f565b9050602081019050919050565b600081519050919050565b600081519050919050565b600082825260208201905092915050565b600082825260208201905092915050565b600081905092915050565b6000612af682612c6a565b9150612b0183612c6a565b9250827fffffffffffffffffffffffffffffffffffffffffffffffffffffffffffffffff03821115612b3657612b35612d93565b5b828201905092915050565b6000612b4c82612c6a565b9150612b5783612c6a565b925082612b6757612b66612dc2565b5b828204905092915050565b6000612b7d82612c6a565b9150612b8883612c6a565b9250817fffffffffffffffffffffffffffffffffffffffffffffffffffffffffffffffff0483118215151615612bc157612bc0612d93565b5b828202905092915050565b6000612bd782612c6a565b9150612be283612c6a565b925082821015612bf557612bf4612d93565b5b828203905092915050565b6000612c0b82612c4a565b9050919050565b60008115159050919050565b60007fffffffff0000000000000000000000000000000000000000000000000000000082169050919050565b600073ffffffffffffffffffffffffffffffffffffffff82169050919050565b6000819050919050565b82818337600083830152505050565b60005b83811015612ca1578082015181840152602081019050612c86565b83811115612cb0576000848401525b50505050565b60006002820490506001821680612cce57607f821691505b60208210811415612ce257612ce1612df1565b5b50919050565b612cf182612e4f565b810181811067ffffffffffffffff82111715612d1057612d0f612e20565b5b80604052505050565b6000612d2482612c6a565b91507fffffffffffffffffffffffffffffffffffffffffffffffffffffffffffffffff821415612d5757612d56612d93565b5b600182019050919050565b6000612d6d82612c6a565b9150612d7883612c6a565b925082612d8857612d87612dc2565b5b828206905092915050565b7f4e487b7100000000000000000000000000000000000000000000000000000000600052601160045260246000fd5b7f4e487b7100000000000000000000000000000000000000000000000000000000600052601260045260246000fd5b7f4e487b7100000000000000000000000000000000000000000000000000000000600052602260045260246000fd5b7f4e487b7100000000000000000000000000000000000000000000000000000000600052604160045260246000fd5b6000601f19601f8301169050919050565b7f4552433732313a207472616e7366657220746f206e6f6e20455243373231526560008201527f63656976657220696d706c656d656e7465720000000000000000000000000000602082015250565b7f4f776e61626c653a206e6577206f776e657220697320746865207a65726f206160008201527f6464726573730000000000000000000000000000000000000000000000000000602082015250565b7f4552433732313a207472616e736665722066726f6d20696e636f72726563742060008201527f6f776e6572000000000000000000000000000000000000000000000000000000602082015250565b7f4552433732313a20746f6b656e20616c7265616479206d696e74656400000000600082015250565b7f4552433732313a207472616e7366657220746f20746865207a65726f2061646460008201527f7265737300000000000000000000000000000000000000000000000000000000602082015250565b7f4552433732313a20617070726f766520746f2063616c6c657200000000000000600082015250565b7f4552433732313a206f70657261746f7220717565727920666f72206e6f6e657860008201527f697374656e7420746f6b656e0000000000000000000000000000000000000000602082015250565b7f4552433732313a20617070726f76652063616c6c6572206973206e6f74206f7760008201527f6e6572206e6f7220617070726f76656420666f7220616c6c0000000000000000602082015250565b7f4552433732313a2062616c616e636520717565727920666f7220746865207a6560008201527f726f206164647265737300000000000000000000000000000000000000000000602082015250565b7f4552433732313a206f776e657220717565727920666f72206e6f6e657869737460008201527f656e7420746f6b656e0000000000000000000000000000000000000000000000602082015250565b7f45524337323155524953746f726167653a2055524920736574206f66206e6f6e60008201527f6578697374656e7420746f6b656e000000000000000000000000000000000000602082015250565b7f227d000000000000000000000000000000000000000000000000000000000000600082015250565b7f20657870657269656e6365222c20226465736372697074696f6e223a2022546860008201527f6973204e465420746573746966696573206d7920657870657269656e6365206160208201527f7420000000000000000000000000000000000000000000000000000000000000604082015250565b7f4552433732313a206d696e7420746f20746865207a65726f2061646472657373600082015250565b7f222c2022696d616765223a202200000000000000000000000000000000000000600082015250565b7f45524337323155524953746f726167653a2055524920717565727920666f722060008201527f6e6f6e6578697374656e7420746f6b656e000000000000000000000000000000602082015250565b7f4552433732313a20617070726f76656420717565727920666f72206e6f6e657860008201527f697374656e7420746f6b656e0000000000000000000000000000000000000000602082015250565b7f7b226e616d65223a20224d792000000000000000000000000000000000000000600082015250565b7f4f776e61626c653a2063616c6c6572206973206e6f7420746865206f776e6572600082015250565b7f4552433732314d657461646174613a2055524920717565727920666f72206e6f60008201527f6e6578697374656e7420746f6b656e0000000000000000000000000000000000602082015250565b7f4552433732313a20617070726f76616c20746f2063757272656e74206f776e6560008201527f7200000000000000000000000000000000000000000000000000000000000000602082015250565b7f2e20000000000000000000000000000000000000000000000000000000000000600082015250565b7f646174613a6170706c69636174696f6e2f6a736f6e3b6261736536342c000000600082015250565b7f4552433732313a207472616e736665722063616c6c6572206973206e6f74206f60008201527f776e6572206e6f7220617070726f766564000000000000000000000000000000602082015250565b6134a181612c00565b81146134ac57600080fd5b50565b6134b881612c12565b81146134c357600080fd5b50565b6134cf81612c1e565b81146134da57600080fd5b50565b6134e681612c6a565b81146134f157600080fd5b5056fe4142434445464748494a4b4c4d4e4f505152535455565758595a6162636465666768696a6b6c6d6e6f707172737475767778797a303132333435363738392b2fa26469706673582212208b78871c240f46ede4c93de703a0959d924df62d8fe0cfac513992f28ba134b664736f6c63430008040033",
  "linkReferences": {},
  "deployedLinkReferences": {}
}